{
  "_format": "hh-sol-artifact-1",
  "contractName": "BadgeNFT",
  "sourceName": "contracts/BadgeNFT.sol",
  "abi": [
    {
      "inputs": [],
      "stateMutability": "nonpayable",
      "type": "constructor"
    },
    {
      "inputs": [
        {
          "internalType": "address",
          "name": "sender",
          "type": "address"
        },
        {
          "internalType": "uint256",
          "name": "balance",
          "type": "uint256"
        },
        {
          "internalType": "uint256",
          "name": "needed",
          "type": "uint256"
        },
        {
          "internalType": "uint256",
          "name": "tokenId",
          "type": "uint256"
        }
      ],
      "name": "ERC1155InsufficientBalance",
      "type": "error"
    },
    {
      "inputs": [
        {
          "internalType": "address",
          "name": "approver",
          "type": "address"
        }
      ],
      "name": "ERC1155InvalidApprover",
      "type": "error"
    },
    {
      "inputs": [
        {
          "internalType": "uint256",
          "name": "idsLength",
          "type": "uint256"
        },
        {
          "internalType": "uint256",
          "name": "valuesLength",
          "type": "uint256"
        }
      ],
      "name": "ERC1155InvalidArrayLength",
      "type": "error"
    },
    {
      "inputs": [
        {
          "internalType": "address",
          "name": "operator",
          "type": "address"
        }
      ],
      "name": "ERC1155InvalidOperator",
      "type": "error"
    },
    {
      "inputs": [
        {
          "internalType": "address",
          "name": "receiver",
          "type": "address"
        }
      ],
      "name": "ERC1155InvalidReceiver",
      "type": "error"
    },
    {
      "inputs": [
        {
          "internalType": "address",
          "name": "sender",
          "type": "address"
        }
      ],
      "name": "ERC1155InvalidSender",
      "type": "error"
    },
    {
      "inputs": [
        {
          "internalType": "address",
          "name": "operator",
          "type": "address"
        },
        {
          "internalType": "address",
          "name": "owner",
          "type": "address"
        }
      ],
      "name": "ERC1155MissingApprovalForAll",
      "type": "error"
    },
    {
      "inputs": [
        {
          "internalType": "address",
          "name": "owner",
          "type": "address"
        }
      ],
      "name": "OwnableInvalidOwner",
      "type": "error"
    },
    {
      "inputs": [
        {
          "internalType": "address",
          "name": "account",
          "type": "address"
        }
      ],
      "name": "OwnableUnauthorizedAccount",
      "type": "error"
    },
    {
      "anonymous": false,
      "inputs": [
        {
          "indexed": true,
          "internalType": "address",
          "name": "account",
          "type": "address"
        },
        {
          "indexed": true,
          "internalType": "address",
          "name": "operator",
          "type": "address"
        },
        {
          "indexed": false,
          "internalType": "bool",
          "name": "approved",
          "type": "bool"
        }
      ],
      "name": "ApprovalForAll",
      "type": "event"
    },
    {
      "anonymous": false,
      "inputs": [
        {
          "indexed": true,
          "internalType": "address",
          "name": "previousOwner",
          "type": "address"
        },
        {
          "indexed": true,
          "internalType": "address",
          "name": "newOwner",
          "type": "address"
        }
      ],
      "name": "OwnershipTransferred",
      "type": "event"
    },
    {
      "anonymous": false,
      "inputs": [
        {
          "indexed": true,
          "internalType": "address",
          "name": "operator",
          "type": "address"
        },
        {
          "indexed": true,
          "internalType": "address",
          "name": "from",
          "type": "address"
        },
        {
          "indexed": true,
          "internalType": "address",
          "name": "to",
          "type": "address"
        },
        {
          "indexed": false,
          "internalType": "uint256[]",
          "name": "ids",
          "type": "uint256[]"
        },
        {
          "indexed": false,
          "internalType": "uint256[]",
          "name": "values",
          "type": "uint256[]"
        }
      ],
      "name": "TransferBatch",
      "type": "event"
    },
    {
      "anonymous": false,
      "inputs": [
        {
          "indexed": true,
          "internalType": "address",
          "name": "operator",
          "type": "address"
        },
        {
          "indexed": true,
          "internalType": "address",
          "name": "from",
          "type": "address"
        },
        {
          "indexed": true,
          "internalType": "address",
          "name": "to",
          "type": "address"
        },
        {
          "indexed": false,
          "internalType": "uint256",
          "name": "id",
          "type": "uint256"
        },
        {
          "indexed": false,
          "internalType": "uint256",
          "name": "value",
          "type": "uint256"
        }
      ],
      "name": "TransferSingle",
      "type": "event"
    },
    {
      "anonymous": false,
      "inputs": [
        {
          "indexed": false,
          "internalType": "string",
          "name": "value",
          "type": "string"
        },
        {
          "indexed": true,
          "internalType": "uint256",
          "name": "id",
          "type": "uint256"
        }
      ],
      "name": "URI",
      "type": "event"
    },
    {
      "inputs": [],
      "name": "badgeIdCounter",
      "outputs": [
        {
          "internalType": "uint256",
          "name": "",
          "type": "uint256"
        }
      ],
      "stateMutability": "view",
      "type": "function"
    },
    {
      "inputs": [
        {
          "internalType": "address",
          "name": "account",
          "type": "address"
        },
        {
          "internalType": "uint256",
          "name": "id",
          "type": "uint256"
        }
      ],
      "name": "balanceOf",
      "outputs": [
        {
          "internalType": "uint256",
          "name": "",
          "type": "uint256"
        }
      ],
      "stateMutability": "view",
      "type": "function"
    },
    {
      "inputs": [
        {
          "internalType": "address[]",
          "name": "accounts",
          "type": "address[]"
        },
        {
          "internalType": "uint256[]",
          "name": "ids",
          "type": "uint256[]"
        }
      ],
      "name": "balanceOfBatch",
      "outputs": [
        {
          "internalType": "uint256[]",
          "name": "",
          "type": "uint256[]"
        }
      ],
      "stateMutability": "view",
      "type": "function"
    },
    {
      "inputs": [
        {
          "internalType": "address",
          "name": "account",
          "type": "address"
        },
        {
          "internalType": "address",
          "name": "operator",
          "type": "address"
        }
      ],
      "name": "isApprovedForAll",
      "outputs": [
        {
          "internalType": "bool",
          "name": "",
          "type": "bool"
        }
      ],
      "stateMutability": "view",
      "type": "function"
    },
    {
      "inputs": [
        {
          "internalType": "address",
          "name": "recipient",
          "type": "address"
        },
        {
          "internalType": "uint256",
          "name": "badgeId",
          "type": "uint256"
        },
        {
          "internalType": "uint256",
          "name": "amount",
          "type": "uint256"
        }
      ],
      "name": "mintBadge",
      "outputs": [],
      "stateMutability": "nonpayable",
      "type": "function"
    },
    {
      "inputs": [],
      "name": "owner",
      "outputs": [
        {
          "internalType": "address",
          "name": "",
          "type": "address"
        }
      ],
      "stateMutability": "view",
      "type": "function"
    },
    {
      "inputs": [],
      "name": "renounceOwnership",
      "outputs": [],
      "stateMutability": "nonpayable",
      "type": "function"
    },
    {
      "inputs": [
        {
          "internalType": "address",
          "name": "from",
          "type": "address"
        },
        {
          "internalType": "address",
          "name": "to",
          "type": "address"
        },
        {
          "internalType": "uint256[]",
          "name": "ids",
          "type": "uint256[]"
        },
        {
          "internalType": "uint256[]",
          "name": "values",
          "type": "uint256[]"
        },
        {
          "internalType": "bytes",
          "name": "data",
          "type": "bytes"
        }
      ],
      "name": "safeBatchTransferFrom",
      "outputs": [],
      "stateMutability": "nonpayable",
      "type": "function"
    },
    {
      "inputs": [
        {
          "internalType": "address",
          "name": "from",
          "type": "address"
        },
        {
          "internalType": "address",
          "name": "to",
          "type": "address"
        },
        {
          "internalType": "uint256",
          "name": "id",
          "type": "uint256"
        },
        {
          "internalType": "uint256",
          "name": "value",
          "type": "uint256"
        },
        {
          "internalType": "bytes",
          "name": "data",
          "type": "bytes"
        }
      ],
      "name": "safeTransferFrom",
      "outputs": [],
      "stateMutability": "nonpayable",
      "type": "function"
    },
    {
      "inputs": [
        {
          "internalType": "address",
          "name": "operator",
          "type": "address"
        },
        {
          "internalType": "bool",
          "name": "approved",
          "type": "bool"
        }
      ],
      "name": "setApprovalForAll",
      "outputs": [],
      "stateMutability": "nonpayable",
      "type": "function"
    },
    {
      "inputs": [
        {
          "internalType": "bytes4",
          "name": "interfaceId",
          "type": "bytes4"
        }
      ],
      "name": "supportsInterface",
      "outputs": [
        {
          "internalType": "bool",
          "name": "",
          "type": "bool"
        }
      ],
      "stateMutability": "view",
      "type": "function"
    },
    {
      "inputs": [
        {
          "internalType": "address",
          "name": "newOwner",
          "type": "address"
        }
      ],
      "name": "transferOwnership",
      "outputs": [],
      "stateMutability": "nonpayable",
      "type": "function"
    },
    {
      "inputs": [
        {
          "internalType": "uint256",
          "name": "",
          "type": "uint256"
        }
      ],
      "name": "uri",
      "outputs": [
        {
          "internalType": "string",
          "name": "",
          "type": "string"
        }
      ],
      "stateMutability": "view",
      "type": "function"
    }
  ],
  "bytecode": "0x60806040523480156200001157600080fd5b50336040518060400160405280601f81526020017f697066733a2f2f516d4261646765426173655552492f7b69647d2e6a736f6e008152506200005a81620000f060201b60201c565b50600073ffffffffffffffffffffffffffffffffffffffff168173ffffffffffffffffffffffffffffffffffffffff1603620000d05760006040517f1e4fbdf7000000000000000000000000000000000000000000000000000000008152600401620000c7919062000210565b60405180910390fd5b620000e1816200010560201b60201c565b5060006004819055506200058e565b8060029081620001019190620004a7565b5050565b6000600360009054906101000a900473ffffffffffffffffffffffffffffffffffffffff16905081600360006101000a81548173ffffffffffffffffffffffffffffffffffffffff021916908373ffffffffffffffffffffffffffffffffffffffff1602179055508173ffffffffffffffffffffffffffffffffffffffff168173ffffffffffffffffffffffffffffffffffffffff167f8be0079c531659141344cd1fd0a4f28419497f9722a3daafe3b4186f6b6457e060405160405180910390a35050565b600073ffffffffffffffffffffffffffffffffffffffff82169050919050565b6000620001f882620001cb565b9050919050565b6200020a81620001eb565b82525050565b6000602082019050620002276000830184620001ff565b92915050565b600081519050919050565b7f4e487b7100000000000000000000000000000000000000000000000000000000600052604160045260246000fd5b7f4e487b7100000000000000000000000000000000000000000000000000000000600052602260045260246000fd5b60006002820490506001821680620002af57607f821691505b602082108103620002c557620002c462000267565b5b50919050565b60008190508160005260206000209050919050565b60006020601f8301049050919050565b600082821b905092915050565b6000600883026200032f7fffffffffffffffffffffffffffffffffffffffffffffffffffffffffffffffff82620002f0565b6200033b8683620002f0565b95508019841693508086168417925050509392505050565b6000819050919050565b6000819050919050565b600062000388620003826200037c8462000353565b6200035d565b62000353565b9050919050565b6000819050919050565b620003a48362000367565b620003bc620003b3826200038f565b848454620002fd565b825550505050565b600090565b620003d3620003c4565b620003e081848462000399565b505050565b5b818110156200040857620003fc600082620003c9565b600181019050620003e6565b5050565b601f82111562000457576200042181620002cb565b6200042c84620002e0565b810160208510156200043c578190505b620004546200044b85620002e0565b830182620003e5565b50505b505050565b600082821c905092915050565b60006200047c600019846008026200045c565b1980831691505092915050565b600062000497838362000469565b9150826002028217905092915050565b620004b2826200022d565b67ffffffffffffffff811115620004ce57620004cd62000238565b5b620004da825462000296565b620004e78282856200040c565b600060209050601f8311600181146200051f57600084156200050a578287015190505b62000516858262000489565b86555062000586565b601f1984166200052f86620002cb565b60005b82811015620005595784890151825560018201915060208501945060208101905062000532565b8683101562000579578489015162000575601f89168262000469565b8355505b6001600288020188555050505b505050505050565b61237f806200059e6000396000f3fe608060405234801561001057600080fd5b50600436106100ce5760003560e01c8063715018a61161008c578063e985e9c511610066578063e985e9c51461020f578063eabc59a41461023f578063f242432a1461025d578063f2fde38b14610279576100ce565b8063715018a6146101cb5780638da5cb5b146101d5578063a22cb465146101f3576100ce565b8062fdd58e146100d357806301ffc9a71461010357806307a43090146101335780630e89341c1461014f5780632eb2c2d61461017f5780634e1273f41461019b575b600080fd5b6100ed60048036038101906100e89190611710565b610295565b6040516100fa919061175f565b60405180910390f35b61011d600480360381019061011891906117d2565b6102ef565b60405161012a919061181a565b60405180910390f35b61014d60048036038101906101489190611835565b6103d1565b005b61016960048036038101906101649190611888565b610416565b6040516101769190611945565b60405180910390f35b61019960048036038101906101949190611b64565b6104aa565b005b6101b560048036038101906101b09190611cf6565b610552565b6040516101c29190611e2c565b60405180910390f35b6101d3610661565b005b6101dd610675565b6040516101ea9190611e5d565b60405180910390f35b61020d60048036038101906102089190611ea4565b61069f565b005b61022960048036038101906102249190611ee4565b6106b5565b604051610236919061181a565b60405180910390f35b610247610749565b604051610254919061175f565b60405180910390f35b61027760048036038101906102729190611f24565b61074f565b005b610293600480360381019061028e9190611fbb565b6107f7565b005b600080600083815260200190815260200160002060008473ffffffffffffffffffffffffffffffffffffffff1673ffffffffffffffffffffffffffffffffffffffff16815260200190815260200160002054905092915050565b60007fd9b67a26000000000000000000000000000000000000000000000000000000007bffffffffffffffffffffffffffffffffffffffffffffffffffffffff1916827bffffffffffffffffffffffffffffffffffffffffffffffffffffffff191614806103ba57507f0e89341c000000000000000000000000000000000000000000000000000000007bffffffffffffffffffffffffffffffffffffffffffffffffffffffff1916827bffffffffffffffffffffffffffffffffffffffffffffffffffffffff1916145b806103ca57506103c98261087d565b5b9050919050565b6103d96108e7565b6103f48383836040518060200160405280600081525061096e565b60045482106104115760018261040a9190612017565b6004819055505b505050565b6060600280546104259061207a565b80601f01602080910402602001604051908101604052809291908181526020018280546104519061207a565b801561049e5780601f106104735761010080835404028352916020019161049e565b820191906000526020600020905b81548152906001019060200180831161048157829003601f168201915b50505050509050919050565b60006104b4610a07565b90508073ffffffffffffffffffffffffffffffffffffffff168673ffffffffffffffffffffffffffffffffffffffff16141580156104f957506104f786826106b5565b155b1561053d5780866040517fe237d9220000000000000000000000000000000000000000000000000000000081526004016105349291906120ab565b60405180910390fd5b61054a8686868686610a0f565b505050505050565b6060815183511461059e57815183516040517f5b0599910000000000000000000000000000000000000000000000000000000081526004016105959291906120d4565b60405180910390fd5b6000835167ffffffffffffffff8111156105bb576105ba61196c565b5b6040519080825280602002602001820160405280156105e95781602001602082028036833780820191505090505b50905060005b84518110156106565761062661060e8287610b0790919063ffffffff16565b6106218387610b1b90919063ffffffff16565b610295565b828281518110610639576106386120fd565b5b6020026020010181815250508061064f9061212c565b90506105ef565b508091505092915050565b6106696108e7565b6106736000610b2f565b565b6000600360009054906101000a900473ffffffffffffffffffffffffffffffffffffffff16905090565b6106b16106aa610a07565b8383610bf5565b5050565b6000600160008473ffffffffffffffffffffffffffffffffffffffff1673ffffffffffffffffffffffffffffffffffffffff16815260200190815260200160002060008373ffffffffffffffffffffffffffffffffffffffff1673ffffffffffffffffffffffffffffffffffffffff16815260200190815260200160002060009054906101000a900460ff16905092915050565b60045481565b6000610759610a07565b90508073ffffffffffffffffffffffffffffffffffffffff168673ffffffffffffffffffffffffffffffffffffffff161415801561079e575061079c86826106b5565b155b156107e25780866040517fe237d9220000000000000000000000000000000000000000000000000000000081526004016107d99291906120ab565b60405180910390fd5b6107ef8686868686610d65565b505050505050565b6107ff6108e7565b600073ffffffffffffffffffffffffffffffffffffffff168173ffffffffffffffffffffffffffffffffffffffff16036108715760006040517f1e4fbdf70000000000000000000000000000000000000000000000000000000081526004016108689190611e5d565b60405180910390fd5b61087a81610b2f565b50565b60007f01ffc9a7000000000000000000000000000000000000000000000000000000007bffffffffffffffffffffffffffffffffffffffffffffffffffffffff1916827bffffffffffffffffffffffffffffffffffffffffffffffffffffffff1916149050919050565b6108ef610a07565b73ffffffffffffffffffffffffffffffffffffffff1661090d610675565b73ffffffffffffffffffffffffffffffffffffffff161461096c57610930610a07565b6040517f118cdaa70000000000000000000000000000000000000000000000000000000081526004016109639190611e5d565b60405180910390fd5b565b600073ffffffffffffffffffffffffffffffffffffffff168473ffffffffffffffffffffffffffffffffffffffff16036109e05760006040517f57f447ce0000000000000000000000000000000000000000000000000000000081526004016109d79190611e5d565b60405180910390fd5b6000806109ed8585610e70565b915091506109ff600087848487610ea0565b505050505050565b600033905090565b600073ffffffffffffffffffffffffffffffffffffffff168473ffffffffffffffffffffffffffffffffffffffff1603610a815760006040517f57f447ce000000000000000000000000000000000000000000000000000000008152600401610a789190611e5d565b60405180910390fd5b600073ffffffffffffffffffffffffffffffffffffffff168573ffffffffffffffffffffffffffffffffffffffff1603610af35760006040517f01a83514000000000000000000000000000000000000000000000000000000008152600401610aea9190611e5d565b60405180910390fd5b610b008585858585610ea0565b5050505050565b600060208202602084010151905092915050565b600060208202602084010151905092915050565b6000600360009054906101000a900473ffffffffffffffffffffffffffffffffffffffff16905081600360006101000a81548173ffffffffffffffffffffffffffffffffffffffff021916908373ffffffffffffffffffffffffffffffffffffffff1602179055508173ffffffffffffffffffffffffffffffffffffffff168173ffffffffffffffffffffffffffffffffffffffff167f8be0079c531659141344cd1fd0a4f28419497f9722a3daafe3b4186f6b6457e060405160405180910390a35050565b600073ffffffffffffffffffffffffffffffffffffffff168273ffffffffffffffffffffffffffffffffffffffff1603610c675760006040517fced3e100000000000000000000000000000000000000000000000000000000008152600401610c5e9190611e5d565b60405180910390fd5b80600160008573ffffffffffffffffffffffffffffffffffffffff1673ffffffffffffffffffffffffffffffffffffffff16815260200190815260200160002060008473ffffffffffffffffffffffffffffffffffffffff1673ffffffffffffffffffffffffffffffffffffffff16815260200190815260200160002060006101000a81548160ff0219169083151502179055508173ffffffffffffffffffffffffffffffffffffffff168373ffffffffffffffffffffffffffffffffffffffff167f17307eab39ab6107e8899845ad3d59bd9653f200f220920489ca2b5937696c3183604051610d58919061181a565b60405180910390a3505050565b600073ffffffffffffffffffffffffffffffffffffffff168473ffffffffffffffffffffffffffffffffffffffff1603610dd75760006040517f57f447ce000000000000000000000000000000000000000000000000000000008152600401610dce9190611e5d565b60405180910390fd5b600073ffffffffffffffffffffffffffffffffffffffff168573ffffffffffffffffffffffffffffffffffffffff1603610e495760006040517f01a83514000000000000000000000000000000000000000000000000000000008152600401610e409190611e5d565b60405180910390fd5b600080610e568585610e70565b91509150610e678787848487610ea0565b50505050505050565b60608060405191506001825283602083015260408201905060018152826020820152604081016040529250929050565b610eac85858585610f52565b600073ffffffffffffffffffffffffffffffffffffffff168473ffffffffffffffffffffffffffffffffffffffff1614610f4b576000610eea610a07565b90506001845103610f3a576000610f0b600086610b1b90919063ffffffff16565b90506000610f23600086610b1b90919063ffffffff16565b9050610f33838989858589611300565b5050610f49565b610f488187878787876114b4565b5b505b5050505050565b8051825114610f9c57815181516040517f5b059991000000000000000000000000000000000000000000000000000000008152600401610f939291906120d4565b60405180910390fd5b6000610fa6610a07565b905060005b83518110156111bb576000610fc98286610b1b90919063ffffffff16565b90506000610fe08386610b1b90919063ffffffff16565b9050600073ffffffffffffffffffffffffffffffffffffffff168873ffffffffffffffffffffffffffffffffffffffff161461110d57600080600084815260200190815260200160002060008a73ffffffffffffffffffffffffffffffffffffffff1673ffffffffffffffffffffffffffffffffffffffff168152602001908152602001600020549050818110156110b557888183856040517f03dee4c50000000000000000000000000000000000000000000000000000000081526004016110ac9493929190612174565b60405180910390fd5b81810360008085815260200190815260200160002060008b73ffffffffffffffffffffffffffffffffffffffff1673ffffffffffffffffffffffffffffffffffffffff16815260200190815260200160002081905550505b600073ffffffffffffffffffffffffffffffffffffffff168773ffffffffffffffffffffffffffffffffffffffff16146111a8578060008084815260200190815260200160002060008973ffffffffffffffffffffffffffffffffffffffff1673ffffffffffffffffffffffffffffffffffffffff16815260200190815260200160002060008282546111a09190612017565b925050819055505b5050806111b49061212c565b9050610fab565b50600183510361127a5760006111db600085610b1b90919063ffffffff16565b905060006111f3600085610b1b90919063ffffffff16565b90508573ffffffffffffffffffffffffffffffffffffffff168773ffffffffffffffffffffffffffffffffffffffff168473ffffffffffffffffffffffffffffffffffffffff167fc3d58168c5ae7397731d063d5bbf3d657854427343f4c083240f7aacaa2d0f62858560405161126b9291906120d4565b60405180910390a450506112f9565b8373ffffffffffffffffffffffffffffffffffffffff168573ffffffffffffffffffffffffffffffffffffffff168273ffffffffffffffffffffffffffffffffffffffff167f4a39dc06d4c0dbc64b70af90fd698a233a518aa5d07e595d983b8c0526c8f7fb86866040516112f09291906121b9565b60405180910390a45b5050505050565b60008473ffffffffffffffffffffffffffffffffffffffff163b11156114ac578373ffffffffffffffffffffffffffffffffffffffff1663f23a6e6187878686866040518663ffffffff1660e01b8152600401611361959493929190612245565b6020604051808303816000875af192505050801561139d57506040513d601f19601f8201168201806040525081019061139a91906122b4565b60015b611421573d80600081146113cd576040519150601f19603f3d011682016040523d82523d6000602084013e6113d2565b606091505b50600081510361141957846040517f57f447ce0000000000000000000000000000000000000000000000000000000081526004016114109190611e5d565b60405180910390fd5b805181602001fd5b63f23a6e6160e01b7bffffffffffffffffffffffffffffffffffffffffffffffffffffffff1916817bffffffffffffffffffffffffffffffffffffffffffffffffffffffff1916146114aa57846040517f57f447ce0000000000000000000000000000000000000000000000000000000081526004016114a19190611e5d565b60405180910390fd5b505b505050505050565b60008473ffffffffffffffffffffffffffffffffffffffff163b1115611660578373ffffffffffffffffffffffffffffffffffffffff1663bc197c8187878686866040518663ffffffff1660e01b81526004016115159594939291906122e1565b6020604051808303816000875af192505050801561155157506040513d601f19601f8201168201806040525081019061154e91906122b4565b60015b6115d5573d8060008114611581576040519150601f19603f3d011682016040523d82523d6000602084013e611586565b606091505b5060008151036115cd57846040517f57f447ce0000000000000000000000000000000000000000000000000000000081526004016115c49190611e5d565b60405180910390fd5b805181602001fd5b63bc197c8160e01b7bffffffffffffffffffffffffffffffffffffffffffffffffffffffff1916817bffffffffffffffffffffffffffffffffffffffffffffffffffffffff19161461165e57846040517f57f447ce0000000000000000000000000000000000000000000000000000000081526004016116559190611e5d565b60405180910390fd5b505b505050505050565b6000604051905090565b600080fd5b600080fd5b600073ffffffffffffffffffffffffffffffffffffffff82169050919050565b60006116a78261167c565b9050919050565b6116b78161169c565b81146116c257600080fd5b50565b6000813590506116d4816116ae565b92915050565b6000819050919050565b6116ed816116da565b81146116f857600080fd5b50565b60008135905061170a816116e4565b92915050565b6000806040838503121561172757611726611672565b5b6000611735858286016116c5565b9250506020611746858286016116fb565b9150509250929050565b611759816116da565b82525050565b60006020820190506117746000830184611750565b92915050565b60007fffffffff0000000000000000000000000000000000000000000000000000000082169050919050565b6117af8161177a565b81146117ba57600080fd5b50565b6000813590506117cc816117a6565b92915050565b6000602082840312156117e8576117e7611672565b5b60006117f6848285016117bd565b91505092915050565b60008115159050919050565b611814816117ff565b82525050565b600060208201905061182f600083018461180b565b92915050565b60008060006060848603121561184e5761184d611672565b5b600061185c868287016116c5565b935050602061186d868287016116fb565b925050604061187e868287016116fb565b9150509250925092565b60006020828403121561189e5761189d611672565b5b60006118ac848285016116fb565b91505092915050565b600081519050919050565b600082825260208201905092915050565b60005b838110156118ef5780820151818401526020810190506118d4565b60008484015250505050565b6000601f19601f8301169050919050565b6000611917826118b5565b61192181856118c0565b93506119318185602086016118d1565b61193a816118fb565b840191505092915050565b6000602082019050818103600083015261195f818461190c565b905092915050565b600080fd5b7f4e487b7100000000000000000000000000000000000000000000000000000000600052604160045260246000fd5b6119a4826118fb565b810181811067ffffffffffffffff821117156119c3576119c261196c565b5b80604052505050565b60006119d6611668565b90506119e2828261199b565b919050565b600067ffffffffffffffff821115611a0257611a0161196c565b5b602082029050602081019050919050565b600080fd5b6000611a2b611a26846119e7565b6119cc565b90508083825260208201905060208402830185811115611a4e57611a4d611a13565b5b835b81811015611a775780611a6388826116fb565b845260208401935050602081019050611a50565b5050509392505050565b600082601f830112611a9657611a95611967565b5b8135611aa6848260208601611a18565b91505092915050565b600080fd5b600067ffffffffffffffff821115611acf57611ace61196c565b5b611ad8826118fb565b9050602081019050919050565b82818337600083830152505050565b6000611b07611b0284611ab4565b6119cc565b905082815260208101848484011115611b2357611b22611aaf565b5b611b2e848285611ae5565b509392505050565b600082601f830112611b4b57611b4a611967565b5b8135611b5b848260208601611af4565b91505092915050565b600080600080600060a08688031215611b8057611b7f611672565b5b6000611b8e888289016116c5565b9550506020611b9f888289016116c5565b945050604086013567ffffffffffffffff811115611bc057611bbf611677565b5b611bcc88828901611a81565b935050606086013567ffffffffffffffff811115611bed57611bec611677565b5b611bf988828901611a81565b925050608086013567ffffffffffffffff811115611c1a57611c19611677565b5b611c2688828901611b36565b9150509295509295909350565b600067ffffffffffffffff821115611c4e57611c4d61196c565b5b602082029050602081019050919050565b6000611c72611c6d84611c33565b6119cc565b90508083825260208201905060208402830185811115611c9557611c94611a13565b5b835b81811015611cbe5780611caa88826116c5565b845260208401935050602081019050611c97565b5050509392505050565b600082601f830112611cdd57611cdc611967565b5b8135611ced848260208601611c5f565b91505092915050565b60008060408385031215611d0d57611d0c611672565b5b600083013567ffffffffffffffff811115611d2b57611d2a611677565b5b611d3785828601611cc8565b925050602083013567ffffffffffffffff811115611d5857611d57611677565b5b611d6485828601611a81565b9150509250929050565b600081519050919050565b600082825260208201905092915050565b6000819050602082019050919050565b611da3816116da565b82525050565b6000611db58383611d9a565b60208301905092915050565b6000602082019050919050565b6000611dd982611d6e565b611de38185611d79565b9350611dee83611d8a565b8060005b83811015611e1f578151611e068882611da9565b9750611e1183611dc1565b925050600181019050611df2565b5085935050505092915050565b60006020820190508181036000830152611e468184611dce565b905092915050565b611e578161169c565b82525050565b6000602082019050611e726000830184611e4e565b92915050565b611e81816117ff565b8114611e8c57600080fd5b50565b600081359050611e9e81611e78565b92915050565b60008060408385031215611ebb57611eba611672565b5b6000611ec9858286016116c5565b9250506020611eda85828601611e8f565b9150509250929050565b60008060408385031215611efb57611efa611672565b5b6000611f09858286016116c5565b9250506020611f1a858286016116c5565b9150509250929050565b600080600080600060a08688031215611f4057611f3f611672565b5b6000611f4e888289016116c5565b9550506020611f5f888289016116c5565b9450506040611f70888289016116fb565b9350506060611f81888289016116fb565b925050608086013567ffffffffffffffff811115611fa257611fa1611677565b5b611fae88828901611b36565b9150509295509295909350565b600060208284031215611fd157611fd0611672565b5b6000611fdf848285016116c5565b91505092915050565b7f4e487b7100000000000000000000000000000000000000000000000000000000600052601160045260246000fd5b6000612022826116da565b915061202d836116da565b925082820190508082111561204557612044611fe8565b5b92915050565b7f4e487b7100000000000000000000000000000000000000000000000000000000600052602260045260246000fd5b6000600282049050600182168061209257607f821691505b6020821081036120a5576120a461204b565b5b50919050565b60006040820190506120c06000830185611e4e565b6120cd6020830184611e4e565b9392505050565b60006040820190506120e96000830185611750565b6120f66020830184611750565b9392505050565b7f4e487b7100000000000000000000000000000000000000000000000000000000600052603260045260246000fd5b6000612137826116da565b91507fffffffffffffffffffffffffffffffffffffffffffffffffffffffffffffffff820361216957612168611fe8565b5b600182019050919050565b60006080820190506121896000830187611e4e565b6121966020830186611750565b6121a36040830185611750565b6121b06060830184611750565b95945050505050565b600060408201905081810360008301526121d38185611dce565b905081810360208301526121e78184611dce565b90509392505050565b600081519050919050565b600082825260208201905092915050565b6000612217826121f0565b61222181856121fb565b93506122318185602086016118d1565b61223a816118fb565b840191505092915050565b600060a08201905061225a6000830188611e4e565b6122676020830187611e4e565b6122746040830186611750565b6122816060830185611750565b8181036080830152612293818461220c565b90509695505050505050565b6000815190506122ae816117a6565b92915050565b6000602082840312156122ca576122c9611672565b5b60006122d88482850161229f565b91505092915050565b600060a0820190506122f66000830188611e4e565b6123036020830187611e4e565b81810360408301526123158186611dce565b905081810360608301526123298185611dce565b9050818103608083015261233d818461220c565b9050969550505050505056fea2646970667358221220a1479c7727b59070d5ab6fa52d5f1f2fc2a7435e84368890cb54346003c6bc2064736f6c63430008140033",
  "linkReferences": {},
  "deployedLinkReferences": {}
}